:020000040800F2
:10000000980C002039EF0008F9F00008FDF0000816
:1000100001F1000805F1000809F1000800000000E6
:100020000000000000000000000000000DF10008CA
:1000300011F100080000000015F1000819F1000896
:100040001DF1000821F1000825F1000829F1000840
:100050002DF1000831F1000835F1000839F10008F0
:100060003DF1000841F1000845F1000849F10008A0
:100070004DF1000851F1000855F1000859F1000850
:100080005DF1000861F1000865F1000869F1000800
:100090006DF1000871F1000875F1000879F10008B0
:1000A0007DF1000881F1000885F1000889F1000860
:1000B0008DF1000891F1000895F1000899F1000810
:1000C0009DF10008A1F10008A5F10008A9F10008C0
:1000D000ADF10008B1F10008B5F10008B9F1000870
:1000E000BDF10008C1F10008C5F1000800F5E0709D
:1000F0000268914203D343681A44914202D3806854
:100100000028F5D17047DFF86C17086890B94FF4F4
:10011000805048604FF480324FF0FF30C860086173
:100120000420DFF854378A604861C3F8BC01DFF867
:100130004C0708600120704701F1080313F0070F16
:100140000EBF0023C3F1080303F007031944D21ABA
:100150008161C26042F001034B60091D4FF0280C21
:1001600041F802C0DFF80C271369C36170472DE91D
:10017000FC4B074601F1080010F0070F0FBF89463E
:10018000C0F1080000F0070001EB000902F10801CE
:1001900011F0070F06D002F10800C0F1080000F0CE
:1001A000070002441546A5EB090009EB0306A0EB86
:1001B000030B43F00303C9F80430AE4228BF01F03B
:1001C00005FA2879C10758BF01F000FABBF1100FFA
:1001D00038BF01F0FBF9B869854208D1F9688B4452
:1001E000C7F80CB0BE614BF00100706051E1786956
:1001F00085420AD1B9688B44C7F808B07E614BF0DC
:100200000100706046F80BB043E1686800F003013C
:10021000012940F0AC80C008C0000190C0081F2830
:1002200039D8AC68D5F80C800090454508BF01F07E
:10023000CDF9A54208BF01F0C9F968680099C00866
:10024000C000B0EBC10F18BF01F0C0F9009907F171
:10025000280000EBC100844206D039698C42C0F00E
:100260008180E268AA427DD1A04506D10098396814
:10027000012383409943396076E0804506D039698F
:1002800088456FD3D8F80800A8426BD1C4F80C8019
:10029000C8F8084068E0EC68D5F81880AC420CD08B
:1002A000A8683969884223D3C268AA4204BFA168FA
:1002B000A9421DD1C460A0601CE005F114010C68C6
:1002C00034B905F110010C68A4B101E011460C68C5
:1002D00004F114021068002802BF04F11002106833
:1002E0000028F3D13869814202D300220A6001E07C
:1002F00001F06CF9B8F1000F36D0E96907F5987094
:1003000000EB81000268954208D10460A4B9E86955
:100310007968012282409143796025E038698045FF
:1003200008D3D8F81010A94214BFC8F81440C8F870
:10033000104001E001F04AF9B4B139698C4211D39F
:10034000C4F81880286928B1884226BF20618461DA
:1003500001F03CF9686938B13969884202D36061BB
:10036000846101E001F032F901996D188B446968EC
:100370004908490069604BF0010070604FEADB04F6
:1003800046F80BB01F2C23D807F1280000EBC40857
:100390004546BBF1100F38BF01F018F9386820FA54
:1003A00004F1CA0705D4012101FA04F404433C60B6
:1003B00007E0D8F80800396988422CBF054601F0EB
:1003C00005F9C8F80860EE60B560C6F80C8060E01A
:1003D0005FEA1B2008BF002123D0B0F5803F28BF73
:1003E0001F211ED2A0F58072120C02F0080290406C
:1003F000A0F58051090C01F004018840A0F580436C
:100400001B0CC2F10E0203F00203521AD21A9840DA
:1004100002EBD032D01D2BFA00F101F0010101EB0B
:100420004201F161002307F59872736102EB8100CC
:1004300033617A6822FA01F3DC0707D4012303FA57
:1004400001F1114379600660B0611DE002681F2967
:100450001DBF4908C1F119010BFA01F1594600E02D
:1004600002465068C008C000584516D002F110037B
:10047000C80F03EB8003490018680028F0D13869E1
:10048000834204D31E60B261F660B66001E001F001
:100490009DF809F10800BDE8F68B396990688A4239
:1004A00028BF8842F3D3C6609660B060F260002037
:1004B000B061EEE72DE9FE4F04468B46A5692E4656
:1004C000904699463146FFF711FE0268416802EBFB
:1004D000010AAAF1270111F007000EBF0021C1F1A6
:1004E000080101F007010AEB0100A0F12F0706F156
:1004F00010018F4238BF374607F1180200210192E0
:100500000091A8F1280259462046FFF715FE07F191
:10051000080010F0070F18BF01F058F81B20786092
:1005200007F1080104F5E07090E80C5081E80C50E8
:10053000C0F800B0C0F80480C0F80C9081600722B9
:100540000198009900E0001D491C00F10803534583
:100550004260F8D30129D8BF01F038F8B74200F063
:100560009580BF1B301D321DC15949084900D1512A
:1005700047F0010070604FEAD70BF751BBF11F0F36
:1005800021D804EBCB0000F12805A846102F38BF76
:1005900001F01CF8206820FA0BF1CA0705D40121EC
:1005A00001FA0BF10843206006E0A868216988423F
:1005B0002CBF804601F00AF8AE60C8F80C60C6F89F
:1005C0000880F5606FE0380A08BF002123D0B0F53D
:1005D000803F28BF1F211ED2A0F58072120C02F0AE
:1005E00008029040A0F58051090C01F004018840F8
:1005F000A0F580431B0CC2F10E0203F00203521A55
:10060000D21A984002EBD032D01D27FA00F101F047
:10061000010101EB420104EB8102002302F5987015
:10062000F16173613361626822FA01F3DB0707D479
:10063000012303FA01F1114361600660B0611DE01E
:1006400002681F291DBF4908C1F1190107FA01F10C
:10065000394600E002465068C008C000B84216D0D3
:1006600002F11003C80F03EB80034900186800284B
:10067000F0D12069834204D31E60B261F660B56098
:1006800011E003B0BDE8F04F00F0A0BF0BE021691E
:1006900090688A4228BF8842F3D3C6609560B060F4
:1006A000F2600020B06103B0BDE8F08F2DE9F041A9
:1006B000704F05463868884608B9FFF724FDB968C9
:1006C00001EB08002F30491E20EA010188457DD248
:1006D00005F5D876B06828B1326889188A4275D293
:1006E000884273D300F092FF01001CBF0C6811F127
:1006F000010F6BD03068201805F5D8723060536850
:10070000984238BF18467060A86960BB286908B174
:10071000814200D22961316174610020F0614FF0A3
:10072000FF303A686A62286205F128020020D26030
:10073000926002F1080757611761801C103220286F
:10074000F5D34D48854208BFA4F1280228D055F8BA
:10075000040CC00805EBC002A2F108000A19121A25
:10076000283A01461CE005F5E070024600E0926878
:100770007AB3136857681F44B942F8D1137B1F0737
:1007800027D4AB691768BB4223D3D2F804C06744AF
:10079000BB421ED2A444C2F804C0E868A96922186A
:1007A0002846FFF7C9FC1FE08068C0B10368934288
:1007B000FAD1027B130712D4026801604368E4187F
:1007C000446043462846BDE8F041D0E40020BDE83F
:1007D000F0812A69914238BF29610A19E5E70023AF
:1007E00022462846FFF766FEE8688045EED2A0EB79
:1007F0000800A969E86001EB0802AA6140F0010065
:10080000506048F00300486001F10800BDE8F08145
:1008100030B4184B1A6882B94FF480525A604FF4C2
:1008200080344FF0FF32DA601A610422124D9C606E
:100830005A61C5F8BC21114A1A6011F1400F17D254
:100840008269AAB1C368283199420BD200F5E071E0
:100850000C68A24203D34D682C44A24202D389689B
:100860000029F5D1C16999423CBF4FF0FF32C26106
:1008700000F0A8BE48020020280000206859883CEB
:100880002DE9F84F00258946090AC9F1000B08BF78
:10089000002323D0B1F5803F28BF1F231ED2A1F52E
:1008A0008072120C02F008029140A1F580531B0CDB
:1008B00003F004039940A1F58044240CC2F10E0218
:1008C00004F00204D21A121BA14002EBD132D11D56
:1008D00029FA01F303F0010303EB4203074607F58E
:1008E000987858F8230030B31F2B0FBF4C465C0894
:1008F000C4F1190409FA04F4AC46594600E0640056
:100900004268D208D200A2EB09028A4203D2110047
:10091000054600F06981426910304FEAD47B50F8F7
:100920002B00002A1CBF824294460028E7D18B4648
:100930006046B0BBBDBB012202FA03F35B00584224
:10094000796803430B4000F04E81584203405B1E20
:10095000180B00F01000C340590901F00801CB400A
:100960009A0802F00402D3405C0804F0020408185C
:10097000E3401018C3F3400620183044F3401B181E
:1009800058F823000DE008464168C908C900A1EBEA
:10099000090159453CBF8B46054601690029F2D142
:1009A00040690028F0D1002D00F01D81B868A0EB4F
:1009B0000900834580F0178139698D42C0F01181AB
:1009C0006868C008C00009EB0B01884218BF00F03E
:1009D000FDFD05EB0906B54280F00381EC68D5F812
:1009E00018A0AC420CD0A8683969884223D3C268E9
:1009F000AA4204BFA168A9421DD1C460A0601CE046
:100A000005F114010C6834B905F110010C68A4B1AA
:100A100001E011460C6804F114021068002802BFBE
:100A200004F1100210680028F3D13869814202D322
:100A300000220A6001E000F0C9FDBAF1000F36D0D3
:100A4000E86908EB800001688D4209D1046020004C
:100A500014D1E8697968012282409143796026E0E7
:100A60003869824508D3DAF81010A94214BFCAF8D1
:100A70001440CAF8104001E000F0A8FDBCB138698C
:100A8000844212D3C4F818A0286930B13969884269
:100A900026BF2061846100F099FD686938B1396929
:100AA000884202D36061846101E000F08FFDBBF1F8
:100AB000100F0CD2D94449F00300291D6860281D8D
:100AC00051F8092042F0010240F8092088E049F07D
:100AD000030068604BF0010070604FEADB0046F8ED
:100AE0000BB01F281DD807EBC00101F1280439689D
:100AF00021FA00F2D307A34605D4012202FA00F03E
:100B00000843386006E0A068396988422CBF8346F4
:100B100000F05CFDA660CBF80C60C6F808B0F4608D
:100B20005EE05FEA1B2008BF002123D0B0F5803FC4
:100B300028BF1F211ED2A0F58072120C02F00802FD
:100B40009040A0F58051090C01F004018840A0F507
:100B500080431B0CC2F10E0203F00203521AD21A98
:100B6000984002EBD032D01D2BFA00F101F00101C8
:100B700001EB4201F16100227261326108EB8100F8
:100B80007A6822FA01F4E30707D4012404FA01F198
:100B9000114379600660B0611DE002681F291DBF26
:100BA0004908C1F119010BFA01F1594600E002466A
:100BB0005068C008C000584518D002F11003C80F93
:100BC00003EB8003490018680028F0D1386983429C
:100BD00004D31E60B261F660B66001E000F0F6FC7E
:100BE00014E100F0F3FC0EE18B46A2E6396990684F
:100BF0008A4228BF8842F1D3C6609660B060F26036
:100C00000020B061ECE72DE9F84F06468846716890
:100C100048420140491E080B00F01000C1404A093B
:100C200002F00802D1408B0803F00403D9404D08BC
:100C300005F002051018E9401818C1F340042818FF
:100C400006F5987A2044E14009185AF821104868BE
:100C5000C008C0000D46A0EB080909E0014648683D
:100C6000C008C000A0EB080048453CBF81460D46C7
:100C700008690028F2D149690029F0D1306985421C
:100C8000C0F0BF806968C90808EB090BC900594565
:100C900018BF00F09BFC05EB08008542009080F037
:100CA000B080EF68AC69AF420CD0A8683169884267
:100CB00023D3C268AA4204BFB968A9421DD1C76044
:100CC000B8601CE005F114010F6837B905F1100197
:100CD0000F68A7B101E011460F6807F11402106810
:100CE000002802BF07F1100210680028F3D1306914
:100CF000814202D300220A6001E000F067FC002C70
:100D000031D0E8690AEB800001688D4208D10760A4
:100D10008FB9E8697168012282409143716022E0D5
:100D20003069844205D32169A94214BF67612761F4
:100D300001E000F04BFCB7B13069874211D3BC61D0
:100D4000286930B13169884226BF3861876100F077
:100D50003DFC686938B13169884202D378618761A6
:100D600001E000F033FCB9F1100F0BD24BF003009F
:100D7000291D6860281D51F80B2042F0010240F83F
:100D80000B203DE048F003012A1D696049F0010095
:100D900042F80800009941F80990D6F808804FEA17
:100DA000D80BBBF1200F28BF00F010FCB8F1000FEA
:100DB00022D006EBCB00776900F12804A246B8F1F7
:100DC000100F38BF00F002FC306820FA0BF1CA07A0
:100DD00005D4012101FA0BF10843306006E0A06858
:100DE000316988422CBF824600F0F0FBA760CAF848
:100DF0000C70C7F808A0FC60C6F8089000987061F5
:100E000004E000F0E3FB0020BDE8F28F05F10800EC
:100E1000BDE8F28F2DE9FE4F0546AFF30080F52DBA
:100E2000DFF89C6780F004810B2D31BF10250B3556
:100E3000ED08ED003068EC08E04010F0030F46D0FC
:100E4000C04300F00100041906F1280000EBC408BB
:100E5000E700D8F808506868C008C000B84218BF5A
:100E600000F0B4FBD5F80890454508BF00F0AEFB94
:100E70004D4508BF00F0AAFB6868C008C000B84232
:100E800018BF00F0A3FBC84507D13068012101FA63
:100E900004F420EA040434600DE03069814508D38D
:100EA000D9F80C10A94204D1C8F80890C9F80C80F0
:100EB00001E000F08BFB47F00300291D6860281D4E
:100EC000CA5942F00102C25105F10804F8E0B168C4
:100ED000A94280F0BE80002800F0A1804FF00108F8
:100EE00008FA04F1490000FA04F4484201430C40B6
:100EF00060420440641E200B00F01000C4406109F1
:100F000001F00801CC40A20802F00402D4406308BA
:100F100003F002030818DC401018C4F34007181847
:100F20003818FC40241806F1280000EBC40AE7003A
:100F3000DAF80890D9F80400C008C000B84218BF19
:100F400000F044FBD9F808B0D14508BF00F03EFBE3
:100F5000D94508BF00F03AFBD9F80400C008C0002A
:100F6000B84218BF00F032FBDA4506D1306808FA03
:100F700004F420EA040434600DE031698B4508D3A1
:100F8000DBF80C00484504D1CAF808B0CBF80CA037
:100F900001E000F01BFB7F1B45F0030009F1040298
:100FA000C9F8040047F00101515109EB0502019213
:100FB000D751B4684FEAD40ABAF1200F28BF00F025
:100FC00005FB34B3CDF800A006F12800756900EBED
:100FD000CA0AD346102C38BF00F0F8FA31680098DE
:100FE00021FA00F2D30704D408FA00F00843306075
:100FF00007E0DAF80800316988422CBF834600F028
:10100000E5FACAF80850CBF80C50C5F808B0C5F896
:101010000CA0B76009F108040198706150E0706895
:10102000C0B329463046FFF7EEFD040011D047E07B
:1010300015F1400F28BF4FF0FF350AD20B35ED08F0
:101040007068ED0028B129463046FFF719FC04000E
:1010500036D1B068A8421DD3411B726910290AD34A
:1010600050197061B16041F001034360415045F097
:10107000030555600BE00021B1607161131D40F064
:1010800003015160111D1C5844F001040C5002F181
:10109000080415E0F06885420DD2401BB169F0608C
:1010A0004A19B26140F00100506045F003054D60FF
:1010B00001F1080404E029463046FFF7F7FA044638
:1010C000AFF300802046FFF7EEBA002800D170474A
:1010D0002DE9F047A0F10805AFF30080DFF8E064E8
:1010E00031698D42C0F05982686800F00302012A1C
:1010F00000F05382C2084FEAC209C20705EB090893
:1011000039D42C6810F0030F00F049826042054486
:101110008D42A144C0F041827069854200F0C680D2
:10112000E408202C5ED2D5F80CA0AF68554508BF66
:1011300000F04CFABD4208BF00F048FA6868C008E9
:10114000C000B0EBC40F18BF00F040FA06F1280051
:1011500000EBC400874205D031698F423FD3FA6863
:10116000AA423CD1BA452CD13068012101FA04F4DD
:1011700020EA04043460454580F00F82D8F804402A
:10118000E00740F10A82A10700F16881B06980455B
:1011900040F09F80F168B5618944C6F80C9049F031
:1011A0000100686071698D4202D100207061B060F9
:1011B000F069484580F0F38100213046FFF728FBB5
:1011C000EDE1824506D03069824508D3DAF808108F
:1011D000A94204D1C7F80CA0CAF80870CBE700F008
:1011E000F5F9C8E7EC68AF69AC420BD0A868884253
:1011F00022D3C168A94204BFA268AA421CD1C4601C
:10120000A0601BE005F11402146834B905F1100266
:1012100014689CB101E01A46146804F114031868BC
:10122000002802BF04F1100318680028F3D18A4295
:1012300002D30021116001E000F0C8F9002F9AD01C
:10124000E96906F5987000EB81000268954209D1C2
:101250000460200011D1E869716801228240914345
:10126000716088E73069874205D33969A94214BFA4
:101270007C613C6101E000F0A9F9002C3FF47BAFF8
:1012800031698C42ABD3A761286928B1884226BF57
:101290002061846100F09AF9686900283FF46BAF1F
:1012A000316988429BD36061846164E798F80400E7
:1012B00000F0030003287FF45EAFC6F8089049F001
:1012C0000101D8F8040040084000C8F80400696033
:1012D0000AE0706980450AD1B16875618944C6F831
:1012E000089049F00100686045F8099057E1E4086A
:1012F000E400A144E408202C3AD2D8F80CA0D8F895
:101300000870D04508BF00F061F9B84508BF00F08B
:101310005DF9D8F80400C008C000B0EBC40F18BFD6
:1013200000F054F906F1280000EBC400874207D012
:1013300031698F42C0F08580FA68424540F0818073
:10134000BA4507D13068012101FA04F420EA040407
:10135000346078E0824506D03069824571D3DAF88E
:10136000081041456DD1C7F80CA0CAF808706AE0B2
:10137000D8F80C40D8F8187044450DD0D8F80800BB
:101380003169884223D3C268424504BFA168414500
:101390001DD1C460A0601CE008F114010C6834B9D0
:1013A00008F110010C68A4B101E011460C6804F1C9
:1013B00014021068002802BF04F11002106800280F
:1013C000F3D13069814202D300220A6001E000F0CB
:1013D000FDF8002F37D0D8F81C1006F5987000EBF8
:1013E0008100026890450AD10460200012D1D8F82B
:1013F0001C007168012282409143716023E03069D2
:10140000874205D33969414514BF7C613C6101E0E5
:1014100000F0DCF8BCB131698C4212D3A761D8F876
:10142000100028B1884226BF2061846100F0CEF808
:10143000D8F8140038B13169884202D36061846100
:1014400001E000F0C3F849F00100686045F8099038
:1014500071698D420BD1C6F80890A0E06408640061
:10146000C8F8044049F00100686045F809904FEA67
:10147000D907202F22D206F1280000EBC704A0468E
:10148000B9F1100F38BF00F0A1F8306820FA07F169
:10149000CA0705D4012101FA07F70743376006E0C0
:1014A000A068316988422CBF804600F08FF8A560A3
:1014B000C8F80C50C5F80880EC6070E05FEA1920AD
:1014C00008BF002123D0B0F5803F28BF1F211ED2C6
:1014D000A0F58072120C02F008029040A0F5805135
:1014E000090C01F004018840A0F580431B0CC2F1F7
:1014F0000E0203F00203521AD21A984002EBD032C5
:10150000D01D29FA00F101F0010101EB420106F5BD
:101510009872002302EB8100E9616B612B617268B4
:1015200022FA01F3DC0707D4012303FA01F1114386
:1015300071600560A8611DE002681F291DBF490890
:10154000C1F1190109FA01F1494600E0024650686B
:10155000C008C000484526D002F11003C80F03EBB5
:101560008003490018680028F0D13069834204D311
:101570001D60AA61ED60AD6001E000F027F8306AFF
:10158000401E30620BD1D6F8C80100E08068002808
:10159000FCD14FF0FF30306201E000F017F8AFF3FC
:1015A0000080BDE8F087316990688A4228BF884290
:1015B000E3D3C5609560A860EA600020A861DEE71B
:1015C0002800002030BC002070470000012000F0FF
:1015D00033B830B4002513E050F8042BD30744BFD0
:1015E000A9F101039A18091F042942F8045BFAD2F1
:1015F00013468C0744BF15809B1CC90748BF1D704C
:1016000050F8041B0029E7D130BC7047074908682F
:1016100008B1002070470648C008C00008600549AE
:10162000C908C900091A0160704700BFAC02002058
:101630009F0C00209814002080B5AFF30080024A70
:1016400011001820ABBEFBE7260002002DE9F34392
:1016500081B0050002A800F04EFA040002A800F0D4
:101660004CFAA046404600F04FFA006800F050FAED
:1016700090F90000002804D0404600F04DFA0668BA
:1016800016E0404600F048FA006800F041FA90F990
:101690000000002804D0404600F036FA066807E053
:1016A00002A800F028FA8046404600F035FA0668A5
:1016B000A0455AD1200000F033FA0768300000F04E
:1016C00027FA90F90000002803D1300000F028FA32
:1016D0000760280000F028FA0068A04204D1280022
:1016E00000F022FA06600EE0380000F00DFA006803
:1016F000A04204D1380000F007FA066003E0380089
:1017000000F00AFA0660280000F015FA0068A0420E
:1017100011D1280000F00FFA8046300000F0F8F9EF
:1017200090F90000002801D0380002E0300000F0FD
:1017300009FAC8F80000280000F008FA0068A04282
:1017400040F08B80280000F001FA8046300000F065
:10175000DFF990F90000002801D0380002E03000E5
:1017600000F0FBF9C8F8000077E0200000F0CCF9A9
:10177000006800F0D5F9C0F80080404600F0C4F9D8
:101780000700200000F0C0F900683860200000F079
:10179000C3F90068804501D1474624E0404600F087
:1017A000BFF90768300000F0B3F990F90000002895
:1017B00003D1300000F0B4F90760380000F0A4F95C
:1017C0000660404600F0A8F98146200000F0A4F928
:1017D0000068C9F80000200000F09EF9006800F0E1
:1017E0009FF9C0F80080280000F09EF90068A04230
:1017F00005D1280000F098F9C0F8008019E0200019
:1018000000F08EF9006800F07FF90068A04208D16E
:10181000200000F085F9006800F076F9C0F800803B
:1018200007E0200000F07CF9006800F075F9C0F8CE
:101830000080404600F074F98146200000F070F905
:101840000068C9F80000200000F08BF9814640468E
:1018500000F087F9494600F088F9200000F081F98E
:1018600090F90000012840F01C810BE03E0005E0EB
:10187000404600F076F9002101703E00300000F093
:101880004FF90768280000F04FF90068864200F021
:101890000381300000F065F990F90000012840F064
:1018A000FB80380000F030F9006886427CD13800B7
:1018B00000F032F9D0F80080404600F052F990F97B
:1018C0000000002812D1404600F04BF901210170C0
:1018D000380000F046F9002101703900280000F0BE
:1018E00059F9380000F018F9D0F80080404600F0AF
:1018F0000FF990F900000028B8D1404600F004F933
:10190000006800F02EF990F90000012810D140463F
:1019100000F002F9006800F024F990F900000128B5
:1019200006D1404600F01DF9002101703E00A5E7F8
:10193000404600F0F1F8006800F013F990F900005B
:10194000012815D1404600F0DFF8006800F009F9E1
:1019500001210170404600F004F900210170414668
:10196000280000F06DF9380000F0D6F8D0F80080BB
:10197000404600F0F6F88146380000F0F2F80078B2
:1019800089F80000380000F0ECF8012101704046B1
:1019900000F0C2F8006800F0E4F80121017039009D
:1019A000280000F0F7F877E0380000F0ADF8D0F844
:1019B0000080404600F0D5F890F90000002812D1D0
:1019C000404600F0CEF801210170380000F0C9F85F
:1019D000002101703900280000F032F9380000F0D1
:1019E00093F8D0F80080404600F092F890F900009B
:1019F000002801D03E0041E7404600F08DF8006825
:101A000000F0AFF890F9000001280AD1404600F03C
:101A10007BF8006800F0A5F890F9000001283FF479
:101A200027AF404600F070F8006800F09AF890F98F
:101A30000000012815D1404600F06EF8006800F063
:101A400090F801210170404600F08BF800210170F0
:101A50004146280000F09EF8380000F055F8D0F814
:101A60000080404600F07DF88146380000F079F8AB
:101A7000007889F80000380000F073F80121017047
:101A8000404600F041F8006800F06BF80121017059
:101A90003900280000F0D4F8300000F062F801218D
:101AA0000170200000F022F900F024F9060028005F
:101AB00000F024F9310000F027F9280000F01EF9A9
:101AC0000122210000F024F9280000F025F9006827
:101AD000002805D0280000F01FF90168491E0160A8
:101AE000280000F01EF902000299684600F01FF974
:101AF0000068BDE8FE830068704710B50400200050
:101B000000F01CF9200010BD80B500F049F902BDBD
:101B100080B500F046F902BD80B500F044F902BD81
:101B200080B500F042F902BD80B500F040F90068D0
:101B3000FFF7F6FF02BD80B500F039F90068FFF746
:101B4000E3FF02BD80B500F036F902BD80B500F0BC
:101B50002EF90068FFF7E0FF02BD80B500F03EF906
:101B600002BD80B500F04DF902BD38B505000C008E
:101B7000280000F048F990F900008DF800002000DE
:101B800000F041F900782870684600F03CF90078D0
:101B9000207031BDF8B504000D002800FFF7BCFF30
:101BA00006682800FFF7B8FF07003000FFF7ACFF1A
:101BB000006838603000FFF7A7FF0068FFF7A8FF54
:101BC00090F90000002806D13000FFF79DFF006863
:101BD000FFF7A6FF05603000FFF7A2FF070028000F
:101BE000FFF79EFF006838602000FFF79DFF006848
:101BF000854204D12000FFF797FF066017E0280018
:101C0000FFF78EFF0068FFF77FFF0068854207D16E
:101C10002800FFF785FF0068FFF776FF066006E003
:101C20002800FFF77DFF0068FFF776FF06603000B1
:101C3000FFF76AFF05602800FFF772FF0660F1BD3D
:101C4000F8B504000D002800FFF75EFF06682800C5
:101C5000FFF75AFF07003000FFF75EFF00683860AB
:101C60003000FFF759FF0068FFF752FF90F90000BE
:101C7000002806D13000FFF74FFF0068FFF750FF44
:101C800005603000FFF74CFF07002800FFF748FF12
:101C9000006838602000FFF747FF0068854204D1E4
:101CA0002000FFF741FF066017E02800FFF738FF2C
:101CB0000068FFF731FF0068854207D12800FFF771
:101CC0002FFF0068FFF728FF066006E02800FFF7F7
:101CD00027FF0068FFF718FF06603000FFF71CFFC2
:101CE00005602800FFF71CFF0660F1BD80B500F01D
:101CF0008BF802BD80B500F089F802BD80B500F018
:101D000086F800F085F802BD80B500F082F801BDCC
:101D100080B500F082F801BD80B500F002F8001D2A
:101D200002BD80B500F073F800F07DF802BD10B57B
:101D30000400200000F078F8200010BD38B5040041
:101D4000206800F02EF890F90000002826D12068C5
:101D500000F029F8006800F024F890F9000000284D
:101D600007D1206800F01FF8006800F024F8206018
:101D700014E000E02560206800F017F805682800EE
:101D800000F00FF890F90000002806D1280000F0BC
:101D90000AF8216800688142ECD02560200032BD3D
:101DA00070470D30704708307047001D704780B590
:101DB00000F03EF802BD10B5040003E02000FFF77C
:101DC000EFFF04682000FFF7EBFF0068FFF7E9FF73
:101DD00090F900000028F1D0200010BD10B50400DB
:101DE00003E02000FFF7DFFF04682000FFF7DBFFC0
:101DF0000068FFF7D6FF90F900000028F1D020001E
:101E000010BD0C30704770471030704770477047F6
:101E1000704780B500F012F801BD80B508001100D0
:101E200000F00DF801BD704780B500F00CF802BD60
:101E300080B500F00FF800F00EF802BD704780B5D5
:101E400000F00AF801BD10B50400200000F009F808
:101E5000200010BD70477047002818BF00F005B87B
:101E6000704780B500F003F802BDFFF72EB910B53A
:101E7000040021601100200000F002F8200010BDD5
:101E800070472DE9F34381B0050002A800F04EFA37
:101E9000040002A800F04CFAA046404600F04FFAB9
:101EA000006800F050FA90F90000002804D0404685
:101EB00000F04DFA066816E0404600F048FA006867
:101EC00000F041FA90F90000002804D0404600F0EC
:101ED00036FA066807E002A800F028FA8046404675
:101EE00000F035FA0668A0455AD1200000F033FA18
:101EF0000768300000F027FA90F90000002803D1AD
:101F0000300000F028FA0760280000F028FA006886
:101F1000A04204D1280000F022FA06600EE038004A
:101F200000F00DFA0068A04204D1380000F007FA72
:101F3000066003E0380000F00AFA0660280000F0AE
:101F400015FA0068A04211D1280000F00FFA80466F
:101F5000300000F0F8F990F90000002801D03800B6
:101F600002E0300000F009FAC8F80000280000F094
:101F700008FA0068A04240F08B80280000F001FAC7
:101F80008046300000F0DFF990F90000002801D011
:101F9000380002E0300000F0FBF9C8F8000077E0FC
:101FA000200000F0CCF9006800F0D5F9C0F80080FE
:101FB000404600F0C4F90700200000F0C0F90068B6
:101FC0003860200000F0C3F90068804501D1474621
:101FD00024E0404600F0BFF90768300000F0B3F994
:101FE00090F90000002803D1300000F0B4F9076038
:101FF000380000F0A4F90660404600F0A8F98146D8
:10200000200000F0A4F90068C9F80000200000F0EA
:102010009EF9006800F09FF9C0F80080280000F0E9
:102020009EF90068A04205D1280000F098F9C0F898
:10203000008019E0200000F08EF9006800F07FF9C0
:102040000068A04208D1200000F085F9006800F087
:1020500076F9C0F8008007E0200000F07CF9006805
:1020600000F075F9C0F80080404600F074F9814630
:10207000200000F070F90068C9F80000200000F0AE
:102080008BF98146404600F087F94946FFF76DFD20
:10209000200000F081F990F90000012840F01C8137
:1020A0000BE03E0005E0404600F076F900210170AB
:1020B0003E00300000F04FF90768280000F04FF9AB
:1020C0000068864200F00381300000F065F990F965
:1020D0000000012840F0FB80380000F030F9006873
:1020E00086427CD1380000F032F9D0F800804046BA
:1020F00000F052F990F90000002812D1404600F09B
:102100004BF901210170380000F046F900210170FF
:102110003900280000F044F9380000F018F9D0F830
:102120000080404600F00FF990F900000028B8D177
:10213000404600F004F9006800F02EF990F9000024
:10214000012810D1404600F002F9006800F024F99F
:1021500090F90000012806D1404600F01DF9002149
:1021600001703E00A5E7404600F0F1F8006800F07D
:1021700013F990F90000012815D1404600F0DFF86E
:10218000006800F009F901210170404600F004F9EF
:10219000002101704146280000F058F9380000F095
:1021A000D6F8D0F80080404600F0F6F881463800B6
:1021B00000F0F2F8007889F80000380000F0ECF840
:1021C00001210170404600F0C2F8006800F0E4F818
:1021D000012101703900280000F0E2F877E03800B2
:1021E00000F0ADF8D0F80080404600F0D5F890F946
:1021F0000000002812D1404600F0CEF80121017005
:10220000380000F0C9F8002101703900280000F002
:102210001DF9380000F093F8D0F80080404600F037
:1022200092F890F90000002801D03E0041E74046B6
:1022300000F08DF8006800F0AFF890F90000012878
:102240000AD1404600F07BF8006800F0A5F890F94C
:10225000000001283FF427AF404600F070F8006806
:1022600000F09AF890F90000012815D1404600F0DE
:102270006EF8006800F090F801210170404600F00F
:102280008BF8002101704146280000F089F83800E1
:1022900000F055F8D0F80080404600F07DF8814607
:1022A000380000F079F8007889F80000380000F074
:1022B00073F801210170404600F041F8006800F019
:1022C0006BF8012101703900280000F0BFF83000E0
:1022D00000F062F801210170200000F00DF900F01B
:1022E0000FF90600280000F00FF9310000F012F994
:1022F000280000F009F90122210000F00FF9280060
:1023000000F010F90068002805D0280000F00AF954
:102310000168491E0160280000F009F902000299D5
:10232000684600F00AF90068BDE8FE83006870475F
:1023300010B50400200000F007F9200010BD80B5A2
:1023400000F034F902BD80B500F031F902BD80B56E
:1023500000F02FF902BD80B500F02DF902BD80B567
:1023600000F02BF90068FFF7F6FF02BD80B500F022
:1023700024F90068FFF7E3FF02BD80B500F021F902
:1023800002BD80B500F019F90068FFF7E0FF02BD5B
:1023900080B500F029F902BD80B500F038F902BD22
:1023A000F8B504000D002800FFF7D1FF06682800EB
:1023B000FFF7CDFF07003000FFF7C1FF006838606E
:1023C0003000FFF7BCFF0068FFF7BDFF90F9000089
:1023D000002806D13000FFF7B2FF0068FFF7BBFF0F
:1023E00005603000FFF7B7FF07002800FFF7B3FFD5
:1023F000006838602000FFF7B2FF0068854204D112
:102400002000FFF7ACFF066017E02800FFF7A3FFEE
:102410000068FFF794FF0068854207D12800FFF7A6
:102420009AFF0068FFF78BFF066006E02800FFF7C1
:1024300092FF0068FFF78BFF06603000FFF77FFF19
:1024400005602800FFF787FF0660F1BDF8B50400BE
:102450000D002800FFF773FF06682800FFF76FFFE5
:1024600007003000FFF773FF006838603000FFF7A7
:102470006EFF0068FFF767FF90F90000002806D1A3
:102480003000FFF764FF0068FFF765FF056030006C
:10249000FFF761FF07002800FFF75DFF0068386065
:1024A0002000FFF75CFF0068854204D12000FFF7A1
:1024B00056FF066017E02800FFF74DFF0068FFF7A2
:1024C00046FF0068854207D12800FFF744FF0068F7
:1024D000FFF73DFF066006E02800FFF73CFF0068BD
:1024E000FFF72DFF06603000FFF731FF0560280081
:1024F000FFF731FF0660F1BD80B500F08AF802BD3C
:1025000080B500F088F802BD80B500F085F800F0D5
:1025100084F802BD80B500F081F801BD80B500F0FF
:1025200081F801BD80B500F002F8001D02BD80B544
:1025300000F072F800F07CF802BD10B50400200035
:1025400000F077F8200010BD38B50400206800F0D6
:102550002EF890F90000002826D1206800F029F814
:10256000006800F024F890F90000002807D12068E6
:1025700000F01FF8006800F024F8206014E000E08C
:102580002560206800F017F80568280000F00FF8B3
:1025900090F90000002806D1280000F00AF8216810
:1025A00000688142ECD02560200032BD70470D30BC
:1025B000704708307047001D704780B500F03DF847
:1025C00002BD10B5040003E02000FFF7EFFF046830
:1025D0002000FFF7EBFF0068FFF7E9FF90F900002C
:1025E0000028F1D0200010BD10B5040003E0200049
:1025F000FFF7DFFF04682000FFF7DBFF0068FFF74D
:10260000D6FF90F900000028F1D0200010BD0C305A
:1026100070471030704770477047704780B500F0C2
:1026200012F801BD80B50800110000F00DF801BDE1
:10263000704780B500F00CF802BD80B500F00FF8CF
:1026400000F00EF802BD704780B5FFF705FC01BD34
:1026500010B50400200000F004F8200010BD704701
:10266000704780B500F001F802BD10B5040021608C
:1026700011002000FFF704FC200010BD2DE9F343FA
:1026800081B0050002A800F04EFA040002A800F094
:102690004CFAA046404600F04FFA006800F050FAAD
:1026A00090F90000002804D0404600F04DFA06687A
:1026B00016E0404600F048FA006800F041FA90F950
:1026C0000000002804D0404600F036FA066807E013
:1026D00002A800F028FA8046404600F035FA066865
:1026E000A0455AD1200000F033FA0768300000F00E
:1026F00027FA90F90000002803D1300000F028FAF2
:102700000760280000F028FA0068A04204D12800E1
:1027100000F022FA06600EE0380000F00DFA0068C2
:10272000A04204D1380000F007FA066003E0380048
:1027300000F00AFA0660280000F015FA0068A042CE
:1027400011D1280000F00FFA8046300000F0F8F9AF
:1027500090F90000002801D0380002E0300000F0BD
:1027600009FAC8F80000280000F008FA0068A04242
:1027700040F08B80280000F001FA8046300000F025
:10278000DFF990F90000002801D0380002E03000A5
:1027900000F0FBF9C8F8000077E0200000F0CCF969
:1027A000006800F0D5F9C0F80080404600F0C4F998
:1027B0000700200000F0C0F900683860200000F039
:1027C000C3F90068804501D1474624E0404600F047
:1027D000BFF90768300000F0B3F990F90000002855
:1027E00003D1300000F0B4F90760380000F0A4F91C
:1027F0000660404600F0A8F98146200000F0A4F9E8
:102800000068C9F80000200000F09EF9006800F0A0
:102810009FF9C0F80080280000F09EF90068A042EF
:1028200005D1280000F098F9C0F8008019E02000D8
:1028300000F08EF9006800F07FF90068A04208D12E
:10284000200000F085F9006800F076F9C0F80080FB
:1028500007E0200000F07CF9006800F075F9C0F88E
:102860000080404600F074F98146200000F070F9C5
:102870000068C9F80000200000F08BF9814640464E
:1028800000F087F94946FFF770F9200000F081F960
:1028900090F90000012840F01C810BE03E0005E0AB
:1028A000404600F076F9002101703E00300000F053
:1028B0004FF90768280000F04FF90068864200F0E1
:1028C0000381300000F065F990F90000012840F024
:1028D000FB80380000F030F9006886427CD1380077
:1028E00000F032F9D0F80080404600F052F990F93B
:1028F0000000002812D1404600F04BF90121017080
:10290000380000F046F9002101703900280000F07D
:1029100044F9380000F018F9D0F80080404600F083
:102920000FF990F900000028B8D1404600F004F9F2
:10293000006800F02EF990F90000012810D14046FF
:1029400000F002F9006800F024F990F90000012875
:1029500006D1404600F01DF9002101703E00A5E7B8
:10296000404600F0F1F8006800F013F990F900001B
:10297000012815D1404600F0DFF8006800F009F9A1
:1029800001210170404600F004F900210170414628
:10299000280000F058F9380000F0D6F8D0F8008090
:1029A000404600F0F6F88146380000F0F2F8007872
:1029B00089F80000380000F0ECF801210170404671
:1029C00000F0C2F8006800F0E4F80121017039005D
:1029D000280000F0E2F877E0380000F0ADF8D0F819
:1029E0000080404600F0D5F890F90000002812D190
:1029F000404600F0CEF801210170380000F0C9F81F
:102A0000002101703900280000F01DF9380000F0A5
:102A100093F8D0F80080404600F092F890F900005A
:102A2000002801D03E0041E7404600F08DF80068E4
:102A300000F0AFF890F9000001280AD1404600F0FC
:102A40007BF8006800F0A5F890F9000001283FF439
:102A500027AF404600F070F8006800F09AF890F94F
:102A60000000012815D1404600F06EF8006800F023
:102A700090F801210170404600F08BF800210170B0
:102A80004146280000F089F8380000F055F8D0F8E9
:102A90000080404600F07DF88146380000F079F86B
:102AA000007889F80000380000F073F80121017007
:102AB000404600F041F8006800F06BF80121017019
:102AC0003900280000F0BFF8300000F062F8012162
:102AD0000170200000F00DF900F00FF90600280049
:102AE00000F00FF9310000F012F9280000F009F9A8
:102AF0000122210000F00FF9280000F010F9006811
:102B0000002805D0280000F00AF90168491E01607C
:102B1000280000F009F902000299684600F00AF95D
:102B20000068BDE8FE830068704710B5040020000F
:102B300000F007F9200010BD80B500F034F902BDA7
:102B400080B500F031F902BD80B500F02FF902BD6B
:102B500080B500F02DF902BD80B500F02BF90068BA
:102B6000FFF7F6FF02BD80B500F024F90068FFF71B
:102B7000E3FF02BD80B500F021F902BD80B500F091
:102B800019F90068FFF7E0FF02BD80B500F029F9F0
:102B900002BD80B500F038F902BDF8B504000D00A3
:102BA0002800FFF7D1FF06682800FFF7CDFF0700D8
:102BB0003000FFF7C1FF006838603000FFF7BCFF4E
:102BC0000068FFF7BDFF90F90000002806D1300033
:102BD000FFF7B2FF0068FFF7BBFF05603000FFF7AB
:102BE000B7FF07002800FFF7B3FF00683860200038
:102BF000FFF7B2FF0068854204D12000FFF7ACFF69
:102C0000066017E02800FFF7A3FF0068FFF794FFB6
:102C10000068854207D12800FFF79AFF0068FFF798
:102C20008BFF066006E02800FFF792FF0068FFF7C1
:102C30008BFF06603000FFF77FFF05602800FFF77D
:102C400087FF0660F1BDF8B504000D002800FFF70E
:102C500073FF06682800FFF76FFF07003000FFF7DB
:102C600073FF006838603000FFF76EFF0068FFF701
:102C700067FF90F90000002806D13000FFF764FFDD
:102C80000068FFF765FF05603000FFF761FF070090
:102C90002800FFF75DFF006838602000FFF75CFF49
:102CA0000068854204D12000FFF756FF066017E058
:102CB0002800FFF74DFF0068FFF746FF00688542D8
:102CC00007D12800FFF744FF0068FFF73DFF0660CB
:102CD00006E02800FFF73CFF0068FFF72DFF0660C5
:102CE0003000FFF731FF05602800FFF731FF066075
:102CF000F1BD80B500F08AF802BD80B500F088F81B
:102D000002BD80B500F085F800F084F802BD80B502
:102D100000F081F801BD80B500F081F801BD80B5FB
:102D200000F002F8001D02BD80B500F072F800F05E
:102D30007CF802BD10B50400200000F077F82000F8
:102D400010BD38B50400206800F02EF890F900009E
:102D5000002826D1206800F029F8006800F024F847
:102D600090F90000002807D1206800F01FF80068E3
:102D700000F024F8206014E000E02560206800F0F6
:102D800017F80568280000F00FF890F900000028F7
:102D900006D1280000F00AF8216800688142ECD0D2
:102DA0002560200032BD70470D30704708307047F5
:102DB000001D704780B500F03DF802BD10B504005D
:102DC00003E02000FFF7EFFF04682000FFF7EBFFB0
:102DD0000068FFF7E9FF90F900000028F1D020001B
:102DE00010BD10B5040003E02000FFF7DFFF04680A
:102DF0002000FFF7DBFF0068FFF7D6FF90F9000027
:102E00000028F1D0200010BD0C3070471030704702
:102E100070477047704780B500F012F801BD80B56B
:102E20000800110000F00DF801BD704780B500F0FA
:102E30000CF802BD80B500F00FF800F00EF802BDEE
:102E4000704780B5FFF708F801BD10B504002000F9
:102E500000F004F8200010BD7047704780B500F006
:102E600001F802BD10B50400216011002000FFF739
:102E700007F8200010BD2DE9F34381B0050002A83A
:102E800000F04EFA040002A800F04CFAA0464046BA
:102E900000F04FFA006800F050FA90F900000028A6
:102EA00004D0404600F04DFA066816E0404600F0B7
:102EB00048FA006800F041FA90F90000002804D0B8
:102EC000404600F036FA066807E002A800F028FA4B
:102ED0008046404600F035FA0668A0455AD12000E9
:102EE00000F033FA0768300000F027FA90F900008C
:102EF000002803D1300000F028FA0760280000F015
:102F000028FA0068A04204D1280000F022FA0660E6
:102F10000EE0380000F00DFA0068A04204D138003D
:102F200000F007FA066003E0380000F00AFA0660D5
:102F3000280000F015FA0068A04211D1280000F026
:102F40000FFA8046300000F0F8F990F900000028F0
:102F500001D0380002E0300000F009FAC8F80000A3
:102F6000280000F008FA0068A04240F08B8028009A
:102F700000F001FA8046300000F0DFF990F900001F
:102F8000002801D0380002E0300000F0FBF9C8F85A
:102F9000000077E0200000F0CCF9006800F0D5F9DF
:102FA000C0F80080404600F0C4F90700200000F09F
:102FB000C0F900683860200000F0C3F9006880455F
:102FC00001D1474624E0404600F0BFF907683000D1
:102FD00000F0B3F990F90000002803D1300000F0B0
:102FE000B4F90760380000F0A4F90660404600F02C
:102FF000A8F98146200000F0A4F90068C9F8000093
:10300000200000F09EF9006800F09FF9C0F80080F1
:10301000280000F09EF90068A04205D1280000F0C9
:1030200098F9C0F8008019E0200000F08EF90068DF
:1030300000F07FF90068A04208D1200000F085F977
:10304000006800F076F9C0F8008007E0200000F08A
:103050007CF9006800F075F9C0F80080404600F087
:1030600074F98146200000F070F90068C9F800008A
:10307000200000F08BF98146404600F087F9494670
:10308000FEF773FD200000F081F990F9000001289F
:1030900040F01C810BE03E0005E0404600F076F970
:1030A000002101703E00300000F04FF90768280051
:1030B00000F04FF90068864200F00381300000F014
:1030C00065F990F90000012840F0FB80380000F01D
:1030D00030F9006886427CD1380000F032F9D0F82F
:1030E0000080404600F052F990F90000002812D10B
:1030F000404600F04BF901210170380000F046F91C
:10310000002101703900280000F044F9380000F077
:1031100018F9D0F80080404600F00FF990F900004F
:103120000028B8D1404600F004F9006800F02EF9FC
:1031300090F90000012810D1404600F002F9006823
:1031400000F024F990F90000012806D1404600F073
:103150001DF9002101703E00A5E7404600F0F1F89E
:10316000006800F013F990F90000012815D14046DD
:1031700000F0DFF8006800F009F901210170404615
:1031800000F004F9002101704146280000F058F9D0
:10319000380000F0D6F8D0F80080404600F0F6F88D
:1031A0008146380000F0F2F8007889F80000380015
:1031B00000F0ECF801210170404600F0C2F8006810
:1031C00000F0E4F8012101703900280000F0E2F875
:1031D00077E0380000F0ADF8D0F80080404600F00D
:1031E000D5F890F90000002812D1404600F0CEF842
:1031F00001210170380000F0C9F800210170390088
:10320000280000F01DF9380000F093F8D0F8008095
:10321000404600F092F890F90000002801D03E00EE
:1032200041E7404600F08DF8006800F0AFF890F9F3
:10323000000001280AD1404600F07BF8006800F049
:10324000A5F890F9000001283FF427AF404600F0B0
:1032500070F8006800F09AF890F90000012815D184
:10326000404600F06EF8006800F090F8012101700F
:10327000404600F08BF8002101704146280000F024
:1032800089F8380000F055F8D0F80080404600F08A
:103290007DF88146380000F079F8007889F8000060
:1032A000380000F073F801210170404600F041F849
:1032B000006800F06BF8012101703900280000F06F
:1032C000BFF8300000F062F801210170200000F02A
:1032D0000DF900F00FF90600280000F00FF9310099
:1032E00000F012F9280000F009F90122210000F095
:1032F0000FF9280000F010F90068002805D0280018
:1033000000F00AF90168491E0160280000F009F97F
:1033100002000299684600F00AF90068BDE8FE83E1
:103320000068704710B50400200000F007F9200085
:1033300010BD80B500F034F902BD80B500F031F960
:1033400002BD80B500F02FF902BD80B500F02DF967
:1033500002BD80B500F02BF90068FFF7F6FF02BD53
:1033600080B500F024F90068FFF7E3FF02BD80B5E7
:1033700000F021F902BD80B500F019F90068FFF7EF
:10338000E0FF02BD80B500F029F902BD80B500F074
:1033900038F902BDF8B504000D002800FFF7D1FF91
:1033A00006682800FFF7CDFF07003000FFF7C1FFD8
:1033B000006838603000FFF7BCFF0068FFF7BDFF12
:1033C00090F90000002806D13000FFF7B2FF006836
:1033D000FFF7BBFF05603000FFF7B7FF07002800CD
:1033E000FFF7B3FF006838602000FFF7B2FF006806
:1033F000854204D12000FFF7ACFF066017E02800EB
:10340000FFF7A3FF0068FFF794FF0068854207D12C
:103410002800FFF79AFF0068FFF78BFF066006E0C1
:103420002800FFF792FF0068FFF78BFF066030006F
:10343000FFF77FFF05602800FFF787FF0660F1BDFB
:10344000F8B504000D002800FFF773FF0668280098
:10345000FFF76FFF07003000FFF773FF0068386069
:103460003000FFF76EFF0068FFF767FF90F900007C
:10347000002806D13000FFF764FF0068FFF765FF02
:1034800005603000FFF761FF07002800FFF75DFFD0
:10349000006838602000FFF75CFF0068854204D1B7
:1034A0002000FFF756FF066017E02800FFF74DFFEA
:1034B0000068FFF746FF0068854207D12800FFF744
:1034C00044FF0068FFF73DFF066006E02800FFF7B5
:1034D0003CFF0068FFF72DFF06603000FFF731FF6B
:1034E00005602800FFF731FF0660F1BD80B500F0F0
:1034F0008AF802BD80B500F088F802BD80B500F002
:1035000085F800F084F802BD80B500F081F801BDB7
:1035100080B500F081F801BD80B500F002F8001D13
:1035200002BD80B500F072F800F07CF802BD10B565
:103530000400200000F077F8200010BD38B504002A
:10354000206800F02EF890F90000002826D12068AD
:1035500000F029F8006800F024F890F90000002835
:1035600007D1206800F01FF8006800F024F8206000
:1035700014E000E02560206800F017F805682800D6
:1035800000F00FF890F90000002806D1280000F0A4
:103590000AF8216800688142ECD02560200032BD25
:1035A00070470D30704708307047001D704780B578
:1035B00000F03DF802BD10B5040003E02000FFF765
:1035C000EFFF04682000FFF7EBFF0068FFF7E9FF5B
:1035D00090F900000028F1D0200010BD10B50400C3
:1035E00003E02000FFF7DFFF04682000FFF7DBFFA8
:1035F0000068FFF7D6FF90F900000028F1D0200006
:1036000010BD0C30704710307047704770477047DE
:1036100080B500F012F801BD80B50800110000F07F
:103620000DF801BD704780B500F00CF802BD80B503
:1036300000F00FF800F00EF802BD704780B5FEF7FD
:103640000BFC01BD10B50400200000F004F82000C0
:1036500010BD7047704780B500F001F802BD10B58D
:103660000400216011002000FEF70AFC200010BDBC
:103670002DE9F34381B0050002A800F04EFA0400E2
:1036800002A800F04CFAA046404600F04FFA00684D
:1036900000F050FA90F90000002804D0404600F0F5
:1036A0004DFA066816E0404600F048FA006800F05F
:1036B00041FA90F90000002804D0404600F036FAA4
:1036C000066807E002A800F028FA8046404600F0AD
:1036D00035FA0668A0455AD1200000F033FA076891
:1036E000300000F027FA90F90000002803D13000E4
:1036F00000F028FA0760280000F028FA0068A042CD
:1037000004D1280000F022FA06600EE0380000F034
:103710000DFA0068A04204D1380000F007FA0660F4
:1037200003E0380000F00AFA0660280000F015FAFD
:103730000068A04211D1280000F00FFA8046300046
:1037400000F0F8F990F90000002801D0380002E0FC
:10375000300000F009FAC8F80000280000F008FA6C
:103760000068A04240F08B80280000F001FA8046FB
:10377000300000F0DFF990F90000002801D0380097
:1037800002E0300000F0FBF9C8F8000077E020000C
:1037900000F0CCF9006800F0D5F9C0F80080404690
:1037A00000F0C4F90700200000F0C0F9006838609C
:1037B000200000F0C3F90068804501D1474624E0AD
:1037C000404600F0BFF90768300000F0B3F990F907
:1037D0000000002803D1300000F0B4F90760380081
:1037E00000F0A4F90660404600F0A8F981462000E8
:1037F00000F0A4F90068C9F80000200000F09EF96C
:10380000006800F09FF9C0F80080280000F09EF9E1
:103810000068A04205D1280000F098F9C0F80080A7
:1038200019E0200000F08EF9006800F07FF90068D0
:10383000A04208D1200000F085F9006800F076F978
:10384000C0F8008007E0200000F07CF9006800F07C
:1038500075F9C0F80080404600F074F981462000F8
:1038600000F070F90068C9F80000200000F08BF942
:103870008146404600F087F94946FEF776F9200078
:1038800000F081F990F90000012840F01C810BE064
:103890003E0005E0404600F076F9002101703E0050
:1038A000300000F04FF90768280000F04FF9006879
:1038B000864200F00381300000F065F990F90000C5
:1038C000012840F0FB80380000F030F900688642A3
:1038D0007CD1380000F032F9D0F80080404600F08A
:1038E00052F990F90000002812D1404600F04BF93F
:1038F00001210170380000F046F900210170390003
:10390000280000F044F9380000F018F9D0F80080E1
:10391000404600F00FF990F900000028B8D1404669
:1039200000F004F9006800F02EF990F90000012879
:1039300010D1404600F002F9006800F024F990F937
:103940000000012806D1404600F01DF90021017059
:103950003E00A5E7404600F0F1F8006800F013F9DA
:1039600090F90000012815D1404600F0DFF800680A
:1039700000F009F901210170404600F004F900212E
:1039800001704146280000F058F9380000F0D6F8E0
:10399000D0F80080404600F0F6F88146380000F08C
:1039A000F2F8007889F80000380000F0ECF8012106
:1039B0000170404600F0C2F8006800F0E4F8012110
:1039C00001703900280000F0E2F877E0380000F0DC
:1039D000ADF8D0F80080404600F0D5F890F900002E
:1039E000002812D1404600F0CEF8012101703800C5
:1039F00000F0C9F8002101703900280000F01DF91D
:103A0000380000F093F8D0F80080404600F092F8BB
:103A100090F90000002801D03E0041E7404600F048
:103A20008DF8006800F0AFF890F9000001280AD185
:103A3000404600F07BF8006800F0A5F890F900001F
:103A400001283FF427AF404600F070F8006800F00E
:103A50009AF890F90000012815D1404600F06EF860
:103A6000006800F090F801210170404600F08BF8EA
:103A7000002101704146280000F089F8380000F06C
:103A800055F8D0F80080404600F07DF881463800B7
:103A900000F079F8007889F80000380000F073F839
:103AA00001210170404600F041F8006800F06BF819
:103AB000012101703900280000F0BFF8300000F04B
:103AC00062F801210170200000F00DF900F00FF9FB
:103AD0000600280000F00FF9310000F012F928006C
:103AE00000F009F90122210000F00FF9280000F090
:103AF00010F90068002805D0280000F00AF90168D4
:103B0000491E0160280000F009F902000299684688
:103B100000F00AF90068BDE8FE830068704710B540
:103B20000400200000F007F9200010BD80B500F06F
:103B300034F902BD80B500F031F902BD80B500F066
:103B40002FF902BD80B500F02DF902BD80B500F05F
:103B50002BF90068FFF7F6FF02BD80B500F024F9ED
:103B60000068FFF7E3FF02BD80B500F021F902BD58
:103B700080B500F019F90068FFF7E0FF02BD80B5DD
:103B800000F029F902BD80B500F038F902BDF8B5A2
:103B900004000D002800FFF7D1FF06682800FFF79A
:103BA000CDFF07003000FFF7C1FF0068386030002C
:103BB000FFF7BCFF0068FFF7BDFF90F90000002889
:103BC00006D13000FFF7B2FF0068FFF7BBFF0560CA
:103BD0003000FFF7B7FF07002800FFF7B3FF0068CA
:103BE00038602000FFF7B2FF0068854204D1200052
:103BF000FFF7ACFF066017E02800FFF7A3FF00689F
:103C0000FFF794FF0068854207D12800FFF79AFF6D
:103C10000068FFF78BFF066006E02800FFF792FFC1
:103C20000068FFF78BFF06603000FFF77FFF05603D
:103C30002800FFF787FF0660F1BDF8B504000D000E
:103C40002800FFF773FF06682800FFF76FFF0700E3
:103C50003000FFF773FF006838603000FFF76EFF39
:103C60000068FFF767FF90F90000002806D13000D8
:103C7000FFF764FF0068FFF765FF05603000FFF79E
:103C800061FF07002800FFF75DFF00683860200033
:103C9000FFF75CFF0068854204D12000FFF756FF64
:103CA000066017E02800FFF74DFF0068FFF746FFAA
:103CB0000068854207D12800FFF744FF0068FFF73E
:103CC0003DFF066006E02800FFF73CFF0068FFF7B5
:103CD0002DFF06603000FFF731FF05602800FFF779
:103CE00031FF0660F1BD80B500F08AF802BD80B5F5
:103CF00000F088F802BD80B500F085F800F084F887
:103D000002BD80B500F081F801BD80B500F081F8FA
:103D100001BD80B500F002F8001D02BD80B500F0C5
:103D200072F800F07CF802BD10B50400200000F02D
:103D300077F8200010BD38B50400206800F02EF898
:103D400090F90000002826D1206800F029F80068CA
:103D500000F024F890F90000002807D1206800F056
:103D60001FF8006800F024F8206014E000E02560EF
:103D7000206800F017F80568280000F00FF890F9A7
:103D80000000002806D1280000F00AF82168006829
:103D90008142ECD02560200032BD70470D30704765
:103DA00008307047001D704780B500F03DF802BD37
:103DB00010B5040003E02000FFF7EFFF04682000C7
:103DC000FFF7EBFF0068FFF7E9FF90F9000000281C
:103DD000F1D0200010BD10B5040003E02000FFF773
:103DE000DFFF04682000FFF7DBFF0068FFF7D6FF66
:103DF00090F900000028F1D0200010BD0C30704771
:103E00001030704770477047704780B500F012F867
:103E100001BD80B50800110000F00DF801BD70472C
:103E200080B500F00CF802BD80B500F00FF800F08E
:103E30000EF802BD704780B5FEF70EF801BD10B553
:103E40000400200000F004F8200010BD7047704707
:103E500080B500F001F802BD10B50400216011002A
:103E60002000FEF70DF8200010BD2DE9F34381B0CE
:103E7000050002A800F04EFA040002A800F04CFA77
:103E8000A046404600F04FFA006800F050FA90F962
:103E90000000002804D0404600F04DFA066816E005
:103EA000404600F048FA006800F041FA90F900003E
:103EB000002804D0404600F036FA066807E002A861
:103EC00000F028FA8046404600F035FA0668A04522
:103ED0005AD1200000F033FA0768300000F027FACA
:103EE00090F90000002803D1300000F028FA0760A4
:103EF000280000F028FA0068A04204D1280000F051
:103F000022FA06600EE0380000F00DFA0068A042C8
:103F100004D1380000F007FA066003E0380000F032
:103F20000AFA0660280000F015FA0068A04211D1D4
:103F3000280000F00FFA8046300000F0F8F990F900
:103F40000000002801D0380002E0300000F009FA3B
:103F5000C8F80000280000F008FA0068A04240F00D
:103F60008B80280000F001FA8046300000F0DFF975
:103F700090F90000002801D0380002E0300000F085
:103F8000FBF9C8F8000077E0200000F0CCF90068E9
:103F900000F0D5F9C0F80080404600F0C4F90700F1
:103FA000200000F0C0F900683860200000F0C3F97C
:103FB0000068804501D1474624E0404600F0BFF943
:103FC0000768300000F0B3F990F90000002803D131
:103FD000300000F0B4F90760380000F0A4F9066082
:103FE000404600F0A8F98146200000F0A4F90068DE
:103FF000C9F80000200000F09EF9006800F09FF969
:10400000C0F80080280000F09EF90068A04205D1A9
:10401000280000F098F9C0F8008019E0200000F0B6
:104020008EF9006800F07FF90068A04208D12000F6
:1040300000F085F9006800F076F9C0F8008007E02C
:10404000200000F07CF9006800F075F9C0F80080ED
:10405000404600F074F98146200000F070F90068D5
:10406000C9F80000200000F08BF98146404600F0BE
:1040700087F94946FDF779FD200000F081F990F9B4
:104080000000012840F01C810BE03E0005E04046A6
:1040900000F076F9002101703E00300000F04FF989
:1040A0000768280000F04FF90068864200F003819D
:1040B000300000F065F990F90000012840F0FB8025
:1040C000380000F030F9006886427CD1380000F0FA
:1040D00032F9D0F80080404600F052F990F9000023
:1040E000002812D1404600F04BF901210170380040
:1040F00000F046F9002101703900280000F044F971
:10410000380000F018F9D0F80080404600F00FF9B0
:1041100090F900000028B8D1404600F004F900688A
:1041200000F02EF990F90000012810D1404600F06F
:1041300002F9006800F024F990F90000012806D186
:10414000404600F01DF9002101703E00A5E7404601
:1041500000F0F1F8006800F013F990F90000012870
:1041600015D1404600F0DFF8006800F009F90121A0
:104170000170404600F004F900210170414628001A
:1041800000F058F9380000F0D6F8D0F8008040462A
:1041900000F0F6F88146380000F0F2F8007889F86F
:1041A0000000380000F0ECF801210170404600F0FA
:1041B000C2F8006800F0E4F801210170390028001D
:1041C00000F0E2F877E0380000F0ADF8D0F80080B9
:1041D000404600F0D5F890F90000002812D1404682
:1041E00000F0CEF801210170380000F0C9F800217C
:1041F00001703900280000F01DF9380000F093F834
:10420000D0F80080404600F092F890F900000028B5
:1042100001D03E0041E7404600F08DF8006800F014
:10422000AFF890F9000001280AD1404600F07BF871
:10423000006800F0A5F890F9000001283FF427AFCE
:10424000404600F070F8006800F09AF890F900001D
:10425000012815D1404600F06EF8006800F090F893
:1042600001210170404600F08BF8002101704146A9
:10427000280000F089F8380000F055F8D0F80080E8
:10428000404600F07DF88146380000F079F800786B
:1042900089F80000380000F073F8012101704046F1
:1042A00000F041F8006800F06BF80121017039005E
:1042B000280000F0BFF8300000F062F80121017022
:1042C000200000F00DF900F00FF90600280000F0C2
:1042D0000FF9310000F012F9280000F009F901226D
:1042E000210000F00FF9280000F010F90068002804
:1042F00005D0280000F00AF90168491E0160280075
:1043000000F009F902000299684600F00AF9006815
:10431000BDE8FE830068704710B50400200000F07F
:1043200007F9200010BD80B500F034F902BD80B55A
:1043300000F031F902BD80B500F02FF902BD80B563
:1043400000F02DF902BD80B500F02BF90068FFF7F1
:10435000F6FF02BD80B500F024F90068FFF7E3FF27
:1043600002BD80B500F021F902BD80B500F019F959
:104370000068FFF7E0FF02BD80B500F029F902BD3B
:1043800080B500F038F902BDF8B504000D00280032
:10439000FFF7D1FF06682800FFF7CDFF07003000C8
:1043A000FFF7C1FF006838603000FFF7BCFF00680E
:1043B000FFF7BDFF90F90000002806D13000FFF79D
:1043C000B2FF0068FFF7BBFF05603000FFF7B7FFE3
:1043D00007002800FFF7B3FF006838602000FFF7F0
:1043E000B2FF0068854204D12000FFF7ACFF0660F1
:1043F00017E02800FFF7A3FF0068FFF794FF0068AD
:10440000854207D12800FFF79AFF0068FFF78BFF6E
:10441000066006E02800FFF792FF0068FFF78BFFB9
:1044200006603000FFF77FFF05602800FFF787FF79
:104430000660F1BDF8B504000D002800FFF773FF1A
:1044400006682800FFF76FFF07003000FFF773FFD3
:10445000006838603000FFF76EFF0068FFF767FF05
:1044600090F90000002806D13000FFF764FF0068D3
:10447000FFF765FF05603000FFF761FF07002800C8
:10448000FFF75DFF006838602000FFF75CFF006801
:10449000854204D12000FFF756FF066017E0280090
:1044A000FFF74DFF0068FFF746FF0068854207D120
:1044B0002800FFF744FF0068FFF73DFF066006E0B5
:1044C0002800FFF73CFF0068FFF72DFF0660300073
:1044D000FFF731FF05602800FFF731FF0660F1BDEF
:1044E00080B500F08AF802BD80B500F088F802BD02
:1044F00080B500F085F800F084F802BD80B500F0CA
:1045000081F801BD80B500F081F801BD80B500F0F3
:1045100002F8001D02BD80B500F072F800F07CF8D2
:1045200002BD10B50400200000F077F8200010BD97
:1045300038B50400206800F02EF890F9000000283B
:1045400026D1206800F029F8006800F024F890F9DE
:104550000000002807D1206800F01FF8006800F074
:1045600024F8206014E000E02560206800F017F8CF
:104570000568280000F00FF890F90000002806D127
:10458000280000F00AF8216800688142ECD025601C
:10459000200032BD70470D30704708307047001D55
:1045A000704780B500F03DF802BD10B5040003E08F
:1045B0002000FFF7EFFF04682000FFF7EBFF006823
:1045C000FFF7E9FF90F900000028F1D0200010BDAE
:1045D00010B5040003E02000FFF7DFFF04682000AF
:1045E000FFF7DBFF0068FFF7D6FF90F90000002817
:1045F000F1D0200010BD0C3070471030704770476C
:104600007047704780B500F012F801BD80B5080012
:10461000110000F00DF801BD704780B500F00CF8F6
:1046200002BD80B500F00FF800F00EF802BD704733
:1046300080B5FDF711FC01BD10B50400200000F0AD
:1046400004F8200010BD7047704780B500F001F8F5
:1046500002BD10B50400216011002000FDF710FC20
:10466000200010BD2DE9F34381B0050002A800F041
:104670004EFA040002A800F04CFAA046404600F0B2
:104680004FFA006800F050FA90F90000002804D0BA
:10469000404600F04DFA066816E0404600F048FA41
:1046A000006800F041FA90F90000002804D040466C
:1046B00000F036FA066807E002A800F028FA804603
:1046C000404600F035FA0668A0455AD1200000F0B7
:1046D00033FA0768300000F027FA90F9000000284C
:1046E00003D1300000F028FA0760280000F028FA13
:1046F0000068A04204D1280000F022FA06600EE013
:10470000380000F00DFA0068A04204D1380000F033
:1047100007FA066003E0380000F00AFA0660280095
:1047200000F015FA0068A04211D1280000F00FFA3D
:104730008046300000F0F8F990F90000002801D020
:10474000380002E0300000F009FAC8F80000280044
:1047500000F008FA0068A04240F08B80280000F0CA
:1047600001FA8046300000F0DFF990F900000028DF
:1047700001D0380002E0300000F0FBF9C8F800007A
:1047800077E0200000F0CCF9006800F0D5F9C0F81F
:104790000080404600F0C4F90700200000F0C0F996
:1047A00000683860200000F0C3F90068804501D13E
:1047B000474624E0404600F0BFF90768300000F0AB
:1047C000B3F990F90000002803D1300000F0B4F9EB
:1047D0000760380000F0A4F90660404600F0A8F930
:1047E0008146200000F0A4F90068C9F8000020000C
:1047F00000F09EF9006800F09FF9C0F800802800E2
:1048000000F09EF90068A04205D1280000F098F958
:10481000C0F8008019E0200000F08EF9006800F078
:104820007FF90068A04208D1200000F085F90068F7
:1048300000F076F9C0F8008007E0200000F07CF975
:10484000006800F075F9C0F80080404600F074F987
:104850008146200000F070F90068C9F800002000CF
:1048600000F08BF98146404600F087F94946FDF794
:104870007CF9200000F081F990F90000012840F057
:104880001C810BE03E0005E0404600F076F9002177
:1048900001703E00300000F04FF90768280000F07A
:1048A0004FF90068864200F00381300000F065F99E
:1048B00090F90000012840F0FB80380000F030F94A
:1048C000006886427CD1380000F032F9D0F80080D0
:1048D000404600F052F990F90000002812D14046FD
:1048E00000F04BF901210170380000F046F9002179
:1048F00001703900280000F044F9380000F018F980
:10490000D0F80080404600F00FF990F90000002830
:10491000B8D1404600F004F9006800F02EF990F993
:104920000000012810D1404600F002F9006800F0B4
:1049300024F990F90000012806D1404600F01DF945
:10494000002101703E00A5E7404600F0F1F8006844
:1049500000F013F990F90000012815D1404600F04D
:10496000DFF8006800F009F901210170404600F00D
:1049700004F9002101704146280000F058F9380080
:1049800000F0D6F8D0F80080404600F0F6F88146F6
:10499000380000F0F2F8007889F80000380000F0E4
:1049A000ECF801210170404600F0C2F8006800F008
:1049B000E4F8012101703900280000F0E2F877E006
:1049C000380000F0ADF8D0F80080404600F0D5F88F
:1049D00090F90000002812D1404600F0CEF80121E5
:1049E0000170380000F0C9F800210170390028007A
:1049F00000F01DF9380000F093F8D0F80080404630
:104A000000F092F890F90000002801D03E0041E744
:104A1000404600F08DF8006800F0AFF890F9000013
:104A200001280AD1404600F07BF8006800F0A5F8A4
:104A300090F9000001283FF427AF404600F070F8DD
:104A4000006800F09AF890F90000012815D140465E
:104A500000F06EF8006800F090F801210170404607
:104A600000F08BF8002101704146280000F089F821
:104A7000380000F055F8D0F80080404600F07DF88E
:104A80008146380000F079F8007889F80000380095
:104A900000F073F801210170404600F041F8006811
:104AA00000F06BF8012101703900280000F0BFF818
:104AB000300000F062F801210170200000F00DF9D3
:104AC00000F00FF90600280000F00FF9310000F0A7
:104AD00012F9280000F009F90122210000F00FF975
:104AE000280000F010F90068002805D0280000F028
:104AF0000AF90168491E0160280000F009F9020066
:104B00000299684600F00AF90068BDE8FE83006873
:104B1000704710B50400200000F007F9200010BD18
:104B200080B500F034F902BD80B500F031F902BD66
:104B300080B500F02FF902BD80B500F02DF902BD5F
:104B400080B500F02BF90068FFF7F6FF02BD80B5D5
:104B500000F024F90068FFF7E3FF02BD80B500F024
:104B600021F902BD80B500F019F90068FFF7E0FFF8
:104B700002BD80B500F029F902BD80B500F038F91A
:104B800002BDF8B504000D002800FFF7D1FF06684C
:104B90002800FFF7CDFF07003000FFF7C1FF0068D6
:104BA00038603000FFF7BCFF0068FFF7BDFF90F9E9
:104BB0000000002806D13000FFF7B2FF0068FFF7C1
:104BC000BBFF05603000FFF7B7FF07002800FFF7C5
:104BD000B3FF006838602000FFF7B2FF006885422D
:104BE00004D12000FFF7ACFF066017E02800FFF7B4
:104BF000A3FF0068FFF794FF0068854207D12800F3
:104C0000FFF79AFF0068FFF78BFF066006E02800B9
:104C1000FFF792FF0068FFF78BFF06603000FFF799
:104C20007FFF05602800FFF787FF0660F1BDF8B53C
:104C300004000D002800FFF773FF06682800FFF747
:104C40006FFF07003000FFF773FF00683860300027
:104C5000FFF76EFF0068FFF767FF90F9000000287C
:104C600006D13000FFF764FF0068FFF765FF0560BD
:104C70003000FFF761FF07002800FFF75DFF0068C5
:104C800038602000FFF75CFF0068854204D12000F7
:104C9000FFF756FF066017E02800FFF74DFF00689A
:104CA000FFF746FF0068854207D12800FFF744FF61
:104CB0000068FFF73DFF066006E02800FFF73CFFB5
:104CC0000068FFF72DFF06603000FFF731FF056039
:104CD0002800FFF731FF0660F1BD80B500F08AF8CB
:104CE00002BD80B500F088F802BD80B500F085F8FF
:104CF00000F084F802BD80B500F081F801BD80B5F8
:104D000000F081F801BD80B500F002F8001D02BD81
:104D100080B500F072F800F07CF802BD10B5040018
:104D2000200000F077F8200010BD38B5040020689E
:104D300000F02EF890F90000002826D1206800F03D
:104D400029F8006800F024F890F90000002807D145
:104D5000206800F01FF8006800F024F8206014E0DC
:104D600000E02560206800F017F80568280000F0D2
:104D70000FF890F90000002806D1280000F00AF88A
:104D8000216800688142ECD02560200032BD704768
:104D90000D30704708307047001D704780B500F037
:104DA0003DF802BD10B5040003E02000FFF7EFFF5F
:104DB00004682000FFF7EBFF0068FFF7E9FF90F9B8
:104DC00000000028F1D0200010BD10B5040003E061
:104DD0002000FFF7DFFF04682000FFF7DBFF00681B
:104DE000FFF7D6FF90F900000028F1D0200010BD99
:104DF0000C3070471030704770477047704780B56F
:104E000000F012F801BD80B50800110000F00DF8A7
:104E100001BD704780B500F00CF802BD80B500F010
:104E20000FF800F00EF802BD704780B5FDF714F8DA
:104E300001BD10B50400200000F004F8200010BDF2
:104E40007047704780B500F001F802BD10B504004E
:104E5000216011002000FDF713F8200010BD2DE99E
:104E6000F34381B0050002A800F04EFA040002A846
:104E700000F04CFAA046404600F04FFA006800F0FF
:104E800050FA90F90000002804D0404600F04DFA96
:104E9000066816E0404600F048FA006800F041FA63
:104EA00090F90000002804D0404600F036FA066869
:104EB00007E002A800F028FA8046404600F035FAE4
:104EC0000668A0455AD1200000F033FA0768300088
:104ED00000F027FA90F90000002803D1300000F01C
:104EE00028FA0760280000F028FA0068A04204D1E0
:104EF000280000F022FA06600EE0380000F00DFAFB
:104F00000068A04204D1380000F007FA066003E010
:104F1000380000F00AFA0660280000F015FA006870
:104F2000A04211D1280000F00FFA8046300000F0B6
:104F3000F8F990F90000002801D0380002E03000B4
:104F400000F009FAC8F80000280000F008FA00682C
:104F5000A04240F08B80280000F001FA804630002B
:104F600000F0DFF990F90000002801D0380002E0DD
:104F7000300000F0FBF9C8F8000077E0200000F0F6
:104F8000CCF9006800F0D5F9C0F80080404600F088
:104F9000C4F90700200000F0C0F900683860200064
:104FA00000F0C3F90068804501D1474624E040463F
:104FB00000F0BFF90768300000F0B3F990F9000085
:104FC000002803D1300000F0B4F90760380000F089
:104FD000A4F90660404600F0A8F98146200000F0E0
:104FE000A4F90068C9F80000200000F09EF90068EC
:104FF00000F09FF9C0F80080280000F09EF90068DA
:10500000A04205D1280000F098F9C0F8008019E00E
:10501000200000F08EF9006800F07FF90068A042DF
:1050200008D1200000F085F9006800F076F9C0F89A
:10503000008007E0200000F07CF9006800F075F9BE
:10504000C0F80080404600F074F98146200000F06E
:1050500070F90068C9F80000200000F08BF9814663
:10506000404600F087F94946FCF77FFD200000F03C
:1050700081F990F90000012840F01C810BE03E000E
:1050800005E0404600F076F9002101703E00300056
:1050900000F04FF90768280000F04FF900688642D9
:1050A00000F00381300000F065F990F9000001285C
:1050B00040F0FB80380000F030F9006886427CD177
:1050C000380000F032F9D0F80080404600F052F984
:1050D00090F90000002812D1404600F04BF9012160
:1050E0000170380000F046F90021017039002800F5
:1050F00000F044F9380000F018F9D0F8008040467C
:1051000000F00FF990F900000028B8D1404600F0F7
:1051100004F9006800F02EF990F90000012810D180
:10512000404600F002F9006800F024F990F9000010
:10513000012806D1404600F01DF9002101703E0013
:10514000A5E7404600F0F1F8006800F013F990F987
:105150000000012815D1404600F0DFF8006800F09B
:1051600009F901210170404600F004F900210170A5
:105170004146280000F058F9380000F0D6F8D0F881
:105180000080404600F0F6F88146380000F0F2F862
:10519000007889F80000380000F0ECF80121017077
:1051A000404600F0C2F8006800F0E4F80121017008
:1051B0003900280000F0E2F877E0380000F0ADF8A0
:1051C000D0F80080404600F0D5F890F900000028A3
:1051D00012D1404600F0CEF801210170380000F0F5
:1051E000C9F8002101703900280000F01DF93800CD
:1051F00000F093F8D0F80080404600F092F890F963
:105200000000002801D03E0041E7404600F08DF844
:10521000006800F0AFF890F9000001280AD140467C
:1052200000F07BF8006800F0A5F890F90000012874
:105230003FF427AF404600F070F8006800F09AF89D
:1052400090F90000012815D1404600F06EF8006882
:1052500000F090F801210170404600F08BF8002129
:1052600001704146280000F089F8380000F055F838
:10527000D0F80080404600F07DF88146380000F00C
:1052800079F8007889F80000380000F073F80121FF
:105290000170404600F041F8006800F06BF8012111
:1052A00001703900280000F0BFF8300000F062F80B
:1052B00001210170200000F00DF900F00FF9060047
:1052C000280000F00FF9310000F012F9280000F07A
:1052D00009F90122210000F00FF9280000F010F96F
:1052E0000068002805D0280000F00AF90168491E6E
:1052F0000160280000F009F902000299684600F0F8
:105300000AF90068BDE8FE830068704710B5040024
:10531000200000F007F9200010BD80B500F034F93E
:1053200002BD80B500F031F902BD80B500F02FF963
:1053300002BD80B500F02DF902BD80B500F02BF95B
:105340000068FFF7F6FF02BD80B500F024F90068A1
:10535000FFF7E3FF02BD80B500F021F902BD80B583
:1053600000F019F90068FFF7E0FF02BD80B500F01A
:1053700029F902BD80B500F038F902BDF8B5040086
:105380000D002800FFF7D1FF06682800FFF7CDFFCA
:1053900007003000FFF7C1FF006838603000FFF7FA
:1053A000BCFF0068FFF7BDFF90F90000002806D1A0
:1053B0003000FFF7B2FF0068FFF7BBFF0560300069
:1053C000FFF7B7FF07002800FFF7B3FF006838605A
:1053D0002000FFF7B2FF0068854204D12000FFF7EC
:1053E000ACFF066017E02800FFF7A3FF0068FFF797
:1053F00094FF0068854207D12800FFF79AFF0068F4
:10540000FFF78BFF066006E02800FFF792FF0068B9
:10541000FFF78BFF06603000FFF77FFF0560280075
:10542000FFF787FF0660F1BDF8B504000D00280006
:10543000FFF773FF06682800FFF76FFF07003000D3
:10544000FFF773FF006838603000FFF76EFF0068F9
:10545000FFF767FF90F90000002806D13000FFF742
:1054600064FF0068FFF765FF05603000FFF761FF2C
:1054700007002800FFF75DFF006838602000FFF795
:105480005CFF0068854204D12000FFF756FF0660EC
:1054900017E02800FFF74DFF0068FFF746FF0068A0
:1054A000854207D12800FFF744FF0068FFF73DFF62
:1054B000066006E02800FFF73CFF0068FFF72DFFBD
:1054C00006603000FFF731FF05602800FFF731FF6D
:1054D0000660F1BD80B500F08AF802BD80B500F02D
:1054E00088F802BD80B500F085F800F084F802BDB0
:1054F00080B500F081F801BD80B500F081F801BDF4
:1055000080B500F002F8001D02BD80B500F072F811
:1055100000F07CF802BD10B50400200000F077F820
:10552000200010BD38B50400206800F02EF890F976
:105530000000002826D1206800F029F8006800F05B
:1055400024F890F90000002807D1206800F01FF827
:10555000006800F024F8206014E000E02560206876
:1055600000F017F80568280000F00FF890F9000027
:10557000002806D1280000F00AF82168006881425E
:10558000ECD02560200032BD70470D3070470830E8
:105590007047001D704780B500F03DF802BD10B5A2
:1055A000040003E02000FFF7EFFF04682000FFF78E
:1055B000EBFF0068FFF7E9FF90F900000028F1D049
:1055C000200010BD10B5040003E02000FFF7DFFF4E
:1055D00004682000FFF7DBFF0068FFF7D6FF90F9B3
:1055E00000000028F1D0200010BD0C3070470E30B4
:1055F000704770477047704780B500F012F801BDE2
:1056000080B50800110000F00DF801BD704780B5AD
:1056100000F00CF802BD80B500F00FF800F00EF8B5
:1056200002BD704780B5FCF717FC01BD10B5040042
:10563000200000F004F8200010BD7047704780B5CE
:1056400000F001F802BD10B5040021601100200037
:10565000FCF716FC200010BD2DE9F34387B00400D1
:1056600015001E0001A800F04DF90027200000F0F1
:1056700050F900280ED1280000F050F90500200054
:1056800000F04DF900962B0002680121200000F087
:105690004AF934E1200000F092FA049004A908A825
:1056A00000F09DFA00285FD1200000F0A1FA0390DD
:1056B00003A908A800F093FA00287BD108A8FCF7FA
:1056C00035FE0100200000F0A3FA804629002000EA
:1056D00000F0A8FA8146200000F0A9FA42464946A7
:1056E00000F0A9FA002840F08B802900200000F08B
:1056F00099FA804608A8FCF719FE0100200000F086
:1057000087FA8146200000F092FA4246494600F0AE
:1057100092FA002800F0E78008980190200000F03D
:1057200067FA029001A8FCF703FE02A900F057FAFD
:10573000002840F0AA8001A8FCF7F8FD0100200035
:1057400000F066FA80462900200000F06BFA8146DE
:10575000200000F06CFA4246494600F06CFA00283E
:1057600040F09380012091E008A8FCF7DFFD0100E4
:10577000200000F04DFA80462900200000F052FA87
:105780008146200000F053FA4246494600F053FAA1
:10579000002800F0A880280000F0C0F8050008A844
:1057A000FCF7C4FD00962B0002000121200000F050
:1057B000BAF8A4E02900200000F034FA8046200066
:1057C000FCF7DFFD0168200000F022FA814620008E
:1057D00000F02DFA4246494600F02DFA002800F06C
:1057E0008280280000F09AF805002000FCF7C9FD2F
:1057F00000962B0002680021200000F094F87EE063
:10580000089801902900200000F00CFA804601A8B9
:1058100000F01AFAFCF78AFD0100200000F0F8F908
:105820008146200000F003FA4246494600F003FAA0
:1058300000283FF45AAF01A8FCF778FDFCF787FD7C
:105840000068FCF780FD90F9000000280ED02800C9
:1058500000F064F8050001A8FCF768FD00962B0035
:1058600002000021200000F05EF848E0280000F06F
:1058700055F8050008A8FCF759FD00962B0002001A
:105880000121200000F04FF839E00020C0B20028CC
:1058900029D108A8FCF74AFDFCF759FD0068FCF780
:1058A00052FD90F9000000280ED0280000F036F8D4
:1058B000050008A8FCF73AFD00962B000200002125
:1058C000200000F030F81AE0280000F027F805006A
:1058D00001A8FCF72BFD00962B00020001212000FF
:1058E00000F021F80BE0280000F018F80096030003
:1058F0003A00D2B2210005A800F0ADF9059809B030
:10590000BDE8F08310B50400200000F073FA200019
:1059100010BD80B500F072FA006802BD704780B516
:10592000FCF705FE02BD2DE9F84305000C00170049
:105930009846089E2800FCF7F5FD8146280000F0F7
:1059400062FAD9F80010401E814205D331002800C8
:1059500000F060FAFBF73AFE4046FFF7DFFF020077
:105960003100280000F06DFA06002800FCF7DAFD8F
:105970000168491C016077602800FFF7D0FF0068CC
:1059800087420CD12800FCF7EAFC06602800FCF7EF
:10599000EDFC06602800FCF7F4FC06601FE0E4B2B2
:1059A000002C0ED03800FCF7CAFC06602800FCF77B
:1059B000DDFC0068874212D12800FCF7D7FC0660A6
:1059C0000DE03800FCF7C3FC06602800FCF7D9FCAA
:1059D0000068874203D12800FCF7D3FC066034003E
:1059E0001EE02000FCF7B7FC0068FCF7D5FC0121A5
:1059F00001703800FCF7D0FC012101702000FCF799
:105A0000AAFC0068FCF7A7FC0068FCF7C5FC0021B5
:105A100001702000FCF79FFC0068FCF79CFC046808
:105A20002000FCF798FC0068FCF7B6FC90F9000039
:105A3000002840F0B1802000FCF78DFC070020001A
:105A4000FCF789FC0068FCF786FC0068FCF777FC33
:105A50003968006881423FD12000FCF77CFC006877
:105A6000FCF779FC0068FCF772FC07683800FCF76B
:105A700093FC90F900000028B3D02000FCF76BFCE9
:105A80000068FCF764FC0068844207D12000FCF742
:105A900062FC046821002800FCF782FC2000FCF76F
:105AA0005AFC0068FCF778FC012101702000FCF72B
:105AB00052FC0068FCF74FFC0068FCF76DFC00210D
:105AC00001702000FCF747FC0068FCF744FC01680B
:105AD0002800FCF7BBFCA3E72000FCF73CFC0068B7
